{
  "_format": "hh-sol-artifact-1",
  "contractName": "BuyMeACoffee",
  "sourceName": "contracts/BuyMeACoffee.sol",
  "abi": [
    {
      "inputs": [],
      "stateMutability": "nonpayable",
      "type": "constructor"
    },
    {
      "anonymous": false,
      "inputs": [
        {
          "indexed": true,
          "internalType": "address",
          "name": "from",
          "type": "address"
        },
        {
          "indexed": false,
          "internalType": "uint256",
          "name": "timestamp",
          "type": "uint256"
        },
        {
          "indexed": false,
          "internalType": "string",
          "name": "name",
          "type": "string"
        },
        {
          "indexed": false,
          "internalType": "string",
          "name": "message",
          "type": "string"
        }
      ],
      "name": "NewMemo",
      "type": "event"
    },
    {
      "inputs": [
        {
          "internalType": "string",
          "name": "_name",
          "type": "string"
        },
        {
          "internalType": "string",
          "name": "_message",
          "type": "string"
        }
      ],
      "name": "buyCoffee",
      "outputs": [],
      "stateMutability": "payable",
      "type": "function"
    },
    {
      "inputs": [],
      "name": "getMemos",
      "outputs": [
        {
          "components": [
            {
              "internalType": "address",
              "name": "from",
              "type": "address"
            },
            {
              "internalType": "uint256",
              "name": "timestamp",
              "type": "uint256"
            },
            {
              "internalType": "string",
              "name": "name",
              "type": "string"
            },
            {
              "internalType": "string",
              "name": "message",
              "type": "string"
            }
          ],
          "internalType": "struct BuyMeACoffee.Memo[]",
          "name": "",
          "type": "tuple[]"
        }
      ],
      "stateMutability": "view",
      "type": "function"
    },
    {
      "inputs": [],
      "name": "withdrawTips",
      "outputs": [],
      "stateMutability": "nonpayable",
      "type": "function"
    }
  ],
  "bytecode": "0x608060405234801561001057600080fd5b50336000806101000a81548173ffffffffffffffffffffffffffffffffffffffff021916908373ffffffffffffffffffffffffffffffffffffffff160217905550610c5e806100606000396000f3fe6080604052600436106100345760003560e01c8063204206e1146100395780633aaa74b214610055578063865c51721461006c575b600080fd5b610053600480360381019061004e919061064d565b610097565b005b34801561006157600080fd5b5061006a61021f565b005b34801561007857600080fd5b5061008161035f565b60405161008e91906108b4565b60405180910390f35b600034116100da576040517f08c379a00000000000000000000000000000000000000000000000000000000081526004016100d190610916565b60405180910390fd5b600160405180608001604052803373ffffffffffffffffffffffffffffffffffffffff16815260200142815260200184815260200183815250908060018154018082558091505060019003906000526020600020906004020160009091909190915060008201518160000160006101000a81548173ffffffffffffffffffffffffffffffffffffffff021916908373ffffffffffffffffffffffffffffffffffffffff1602179055506020820151816001015560408201518160020190805190602001906101a9929190610542565b5060608201518160030190805190602001906101c6929190610542565b5050503373ffffffffffffffffffffffffffffffffffffffff167fc56140e05f516509ae28110e0f72e17558a7561630dad2647c3ae87d986e365c42848460405161021393929190610936565b60405180910390a25050565b60008054906101000a900473ffffffffffffffffffffffffffffffffffffffff1673ffffffffffffffffffffffffffffffffffffffff163373ffffffffffffffffffffffffffffffffffffffff16146102ad576040517f08c379a00000000000000000000000000000000000000000000000000000000081526004016102a4906108d6565b60405180910390fd5b6000479050600081116102f5576040517f08c379a00000000000000000000000000000000000000000000000000000000081526004016102ec906108f6565b60405180910390fd5b60008054906101000a900473ffffffffffffffffffffffffffffffffffffffff1673ffffffffffffffffffffffffffffffffffffffff166108fc829081150290604051600060405180830381858888f1935050505015801561035b573d6000803e3d6000fd5b5050565b60606001805480602002602001604051908101604052809291908181526020016000905b8282101561053957838290600052602060002090600402016040518060800160405290816000820160009054906101000a900473ffffffffffffffffffffffffffffffffffffffff1673ffffffffffffffffffffffffffffffffffffffff1673ffffffffffffffffffffffffffffffffffffffff1681526020016001820154815260200160028201805461041690610ab5565b80601f016020809104026020016040519081016040528092919081815260200182805461044290610ab5565b801561048f5780601f106104645761010080835404028352916020019161048f565b820191906000526020600020905b81548152906001019060200180831161047257829003601f168201915b505050505081526020016003820180546104a890610ab5565b80601f01602080910402602001604051908101604052809291908181526020018280546104d490610ab5565b80156105215780601f106104f657610100808354040283529160200191610521565b820191906000526020600020905b81548152906001019060200180831161050457829003601f168201915b50505050508152505081526020019060010190610383565b50505050905090565b82805461054e90610ab5565b90600052602060002090601f01602090048101928261057057600085556105b7565b82601f1061058957805160ff19168380011785556105b7565b828001600101855582156105b7579182015b828111156105b657825182559160200191906001019061059b565b5b5090506105c491906105c8565b5090565b5b808211156105e15760008160009055506001016105c9565b5090565b60006105f86105f3846109a0565b61097b565b90508281526020810184848401111561061057600080fd5b61061b848285610a73565b509392505050565b600082601f83011261063457600080fd5b81356106448482602086016105e5565b91505092915050565b6000806040838503121561066057600080fd5b600083013567ffffffffffffffff81111561067a57600080fd5b61068685828601610623565b925050602083013567ffffffffffffffff8111156106a357600080fd5b6106af85828601610623565b9150509250929050565b60006106c5838361082c565b905092915050565b6106d681610a37565b82525050565b60006106e7826109e1565b6106f18185610a04565b935083602082028501610703856109d1565b8060005b8581101561073f578484038952815161072085826106b9565b945061072b836109f7565b925060208a01995050600181019050610707565b50829750879550505050505092915050565b600061075c826109ec565b6107668185610a15565b9350610776818560208601610a82565b61077f81610b76565b840191505092915050565b6000610795826109ec565b61079f8185610a26565b93506107af818560208601610a82565b6107b881610b76565b840191505092915050565b60006107d0602783610a26565b91506107db82610b87565b604082019050919050565b60006107f3601583610a26565b91506107fe82610bd6565b602082019050919050565b6000610816601a83610a26565b915061082182610bff565b602082019050919050565b600060808301600083015161084460008601826106cd565b5060208301516108576020860182610896565b506040830151848203604086015261086f8282610751565b915050606083015184820360608601526108898282610751565b9150508091505092915050565b61089f81610a69565b82525050565b6108ae81610a69565b82525050565b600060208201905081810360008301526108ce81846106dc565b905092915050565b600060208201905081810360008301526108ef816107c3565b9050919050565b6000602082019050818103600083015261090f816107e6565b9050919050565b6000602082019050818103600083015261092f81610809565b9050919050565b600060608201905061094b60008301866108a5565b818103602083015261095d818561078a565b90508181036040830152610971818461078a565b9050949350505050565b6000610985610996565b90506109918282610ae7565b919050565b6000604051905090565b600067ffffffffffffffff8211156109bb576109ba610b47565b5b6109c482610b76565b9050602081019050919050565b6000819050602082019050919050565b600081519050919050565b600081519050919050565b6000602082019050919050565b600082825260208201905092915050565b600082825260208201905092915050565b600082825260208201905092915050565b6000610a4282610a49565b9050919050565b600073ffffffffffffffffffffffffffffffffffffffff82169050919050565b6000819050919050565b82818337600083830152505050565b60005b83811015610aa0578082015181840152602081019050610a85565b83811115610aaf576000848401525b50505050565b60006002820490506001821680610acd57607f821691505b60208210811415610ae157610ae0610b18565b5b50919050565b610af082610b76565b810181811067ffffffffffffffff82111715610b0f57610b0e610b47565b5b80604052505050565b7f4e487b7100000000000000000000000000000000000000000000000000000000600052602260045260246000fd5b7f4e487b7100000000000000000000000000000000000000000000000000000000600052604160045260246000fd5b6000601f19601f8301169050919050565b7f4f6e6c7920636f6e7472616374206f776e65722063616e20776974686472617760008201527f2066756e64732e00000000000000000000000000000000000000000000000000602082015250565b7f4e6f2066756e647320746f2077697468647261772e0000000000000000000000600082015250565b7f63616e27742062757920636f6666656520666f7220667265652100000000000060008201525056fea2646970667358221220369ac70c1d1344e3de212db6ea1b746e37497df706e7839f2f23b309ee55a4f664736f6c63430008040033",
  "linkReferences": {},
  "deployedLinkReferences": {}
}